{
  "_format": "hh-sol-artifact-1",
  "contractName": "RizzedBears",
  "sourceName": "contracts/RizzedBears.sol",
  "abi": [
    {
      "inputs": [],
      "stateMutability": "nonpayable",
      "type": "constructor"
    },
    {
      "inputs": [],
      "name": "ApprovalCallerNotOwnerNorApproved",
      "type": "error"
    },
    {
      "inputs": [],
      "name": "ApprovalQueryForNonexistentToken",
      "type": "error"
    },
    {
      "inputs": [],
      "name": "BalanceQueryForZeroAddress",
      "type": "error"
    },
    {
      "inputs": [],
      "name": "MintERC2309QuantityExceedsLimit",
      "type": "error"
    },
    {
      "inputs": [],
      "name": "MintToZeroAddress",
      "type": "error"
    },
    {
      "inputs": [],
      "name": "MintZeroQuantity",
      "type": "error"
    },
    {
      "inputs": [],
      "name": "MintedOut",
      "type": "error"
    },
    {
      "inputs": [],
      "name": "MintingClosed",
      "type": "error"
    },
    {
      "inputs": [],
      "name": "OwnerQueryForNonexistentToken",
      "type": "error"
    },
    {
      "inputs": [],
      "name": "OwnershipNotInitializedForExtraData",
      "type": "error"
    },
    {
      "inputs": [],
      "name": "TransferCallerNotOwnerNorApproved",
      "type": "error"
    },
    {
      "inputs": [],
      "name": "TransferFromIncorrectOwner",
      "type": "error"
    },
    {
      "inputs": [],
      "name": "TransferToNonERC721ReceiverImplementer",
      "type": "error"
    },
    {
      "inputs": [],
      "name": "TransferToZeroAddress",
      "type": "error"
    },
    {
      "inputs": [],
      "name": "URIQueryForNonexistentToken",
      "type": "error"
    },
    {
      "anonymous": false,
      "inputs": [
        {
          "indexed": true,
          "internalType": "address",
          "name": "owner",
          "type": "address"
        },
        {
          "indexed": true,
          "internalType": "address",
          "name": "approved",
          "type": "address"
        },
        {
          "indexed": true,
          "internalType": "uint256",
          "name": "tokenId",
          "type": "uint256"
        }
      ],
      "name": "Approval",
      "type": "event"
    },
    {
      "anonymous": false,
      "inputs": [
        {
          "indexed": true,
          "internalType": "address",
          "name": "owner",
          "type": "address"
        },
        {
          "indexed": true,
          "internalType": "address",
          "name": "operator",
          "type": "address"
        },
        {
          "indexed": false,
          "internalType": "bool",
          "name": "approved",
          "type": "bool"
        }
      ],
      "name": "ApprovalForAll",
      "type": "event"
    },
    {
      "anonymous": false,
      "inputs": [
        {
          "indexed": true,
          "internalType": "uint256",
          "name": "fromTokenId",
          "type": "uint256"
        },
        {
          "indexed": false,
          "internalType": "uint256",
          "name": "toTokenId",
          "type": "uint256"
        },
        {
          "indexed": true,
          "internalType": "address",
          "name": "from",
          "type": "address"
        },
        {
          "indexed": true,
          "internalType": "address",
          "name": "to",
          "type": "address"
        }
      ],
      "name": "ConsecutiveTransfer",
      "type": "event"
    },
    {
      "anonymous": false,
      "inputs": [
        {
          "indexed": true,
          "internalType": "address",
          "name": "previousOwner",
          "type": "address"
        },
        {
          "indexed": true,
          "internalType": "address",
          "name": "newOwner",
          "type": "address"
        }
      ],
      "name": "OwnershipTransferred",
      "type": "event"
    },
    {
      "anonymous": false,
      "inputs": [
        {
          "indexed": false,
          "internalType": "bool",
          "name": "",
          "type": "bool"
        }
      ],
      "name": "StatusChange",
      "type": "event"
    },
    {
      "anonymous": false,
      "inputs": [
        {
          "indexed": true,
          "internalType": "address",
          "name": "from",
          "type": "address"
        },
        {
          "indexed": true,
          "internalType": "address",
          "name": "to",
          "type": "address"
        },
        {
          "indexed": true,
          "internalType": "uint256",
          "name": "tokenId",
          "type": "uint256"
        }
      ],
      "name": "Transfer",
      "type": "event"
    },
    {
      "inputs": [
        {
          "internalType": "address",
          "name": "to",
          "type": "address"
        },
        {
          "internalType": "uint256",
          "name": "tokenId",
          "type": "uint256"
        }
      ],
      "name": "approve",
      "outputs": [],
      "stateMutability": "payable",
      "type": "function"
    },
    {
      "inputs": [
        {
          "internalType": "address",
          "name": "owner",
          "type": "address"
        }
      ],
      "name": "balanceOf",
      "outputs": [
        {
          "internalType": "uint256",
          "name": "",
          "type": "uint256"
        }
      ],
      "stateMutability": "view",
      "type": "function"
    },
    {
      "inputs": [],
      "name": "baseURI",
      "outputs": [
        {
          "internalType": "string",
          "name": "",
          "type": "string"
        }
      ],
      "stateMutability": "view",
      "type": "function"
    },
    {
      "inputs": [
        {
          "internalType": "uint256",
          "name": "quantity",
          "type": "uint256"
        }
      ],
      "name": "claim",
      "outputs": [],
      "stateMutability": "payable",
      "type": "function"
    },
    {
      "inputs": [
        {
          "internalType": "uint256",
          "name": "tokenId",
          "type": "uint256"
        }
      ],
      "name": "getApproved",
      "outputs": [
        {
          "internalType": "address",
          "name": "",
          "type": "address"
        }
      ],
      "stateMutability": "view",
      "type": "function"
    },
    {
      "inputs": [
        {
          "internalType": "address",
          "name": "owner",
          "type": "address"
        },
        {
          "internalType": "address",
          "name": "operator",
          "type": "address"
        }
      ],
      "name": "isApprovedForAll",
      "outputs": [
        {
          "internalType": "bool",
          "name": "",
          "type": "bool"
        }
      ],
      "stateMutability": "view",
      "type": "function"
    },
    {
      "inputs": [],
      "name": "maxSupply",
      "outputs": [
        {
          "internalType": "uint256",
          "name": "",
          "type": "uint256"
        }
      ],
      "stateMutability": "view",
      "type": "function"
    },
    {
      "inputs": [],
      "name": "name",
      "outputs": [
        {
          "internalType": "string",
          "name": "",
          "type": "string"
        }
      ],
      "stateMutability": "view",
      "type": "function"
    },
    {
      "inputs": [],
      "name": "owner",
      "outputs": [
        {
          "internalType": "address",
          "name": "",
          "type": "address"
        }
      ],
      "stateMutability": "view",
      "type": "function"
    },
    {
      "inputs": [
        {
          "internalType": "uint256",
          "name": "tokenId",
          "type": "uint256"
        }
      ],
      "name": "ownerOf",
      "outputs": [
        {
          "internalType": "address",
          "name": "",
          "type": "address"
        }
      ],
      "stateMutability": "view",
      "type": "function"
    },
    {
      "inputs": [],
      "name": "renounceOwnership",
      "outputs": [],
      "stateMutability": "nonpayable",
      "type": "function"
    },
    {
      "inputs": [
        {
          "internalType": "address",
          "name": "from",
          "type": "address"
        },
        {
          "internalType": "address",
          "name": "to",
          "type": "address"
        },
        {
          "internalType": "uint256",
          "name": "tokenId",
          "type": "uint256"
        }
      ],
      "name": "safeTransferFrom",
      "outputs": [],
      "stateMutability": "payable",
      "type": "function"
    },
    {
      "inputs": [
        {
          "internalType": "address",
          "name": "from",
          "type": "address"
        },
        {
          "internalType": "address",
          "name": "to",
          "type": "address"
        },
        {
          "internalType": "uint256",
          "name": "tokenId",
          "type": "uint256"
        },
        {
          "internalType": "bytes",
          "name": "_data",
          "type": "bytes"
        }
      ],
      "name": "safeTransferFrom",
      "outputs": [],
      "stateMutability": "payable",
      "type": "function"
    },
    {
      "inputs": [
        {
          "internalType": "address",
          "name": "operator",
          "type": "address"
        },
        {
          "internalType": "bool",
          "name": "approved",
          "type": "bool"
        }
      ],
      "name": "setApprovalForAll",
      "outputs": [],
      "stateMutability": "nonpayable",
      "type": "function"
    },
    {
      "inputs": [
        {
          "internalType": "bytes4",
          "name": "interfaceId",
          "type": "bytes4"
        }
      ],
      "name": "supportsInterface",
      "outputs": [
        {
          "internalType": "bool",
          "name": "",
          "type": "bool"
        }
      ],
      "stateMutability": "view",
      "type": "function"
    },
    {
      "inputs": [],
      "name": "symbol",
      "outputs": [
        {
          "internalType": "string",
          "name": "",
          "type": "string"
        }
      ],
      "stateMutability": "view",
      "type": "function"
    },
    {
      "inputs": [
        {
          "internalType": "uint256",
          "name": "tokenId",
          "type": "uint256"
        }
      ],
      "name": "tokenURI",
      "outputs": [
        {
          "internalType": "string",
          "name": "",
          "type": "string"
        }
      ],
      "stateMutability": "view",
      "type": "function"
    },
    {
      "inputs": [],
      "name": "totalSupply",
      "outputs": [
        {
          "internalType": "uint256",
          "name": "",
          "type": "uint256"
        }
      ],
      "stateMutability": "view",
      "type": "function"
    },
    {
      "inputs": [
        {
          "internalType": "address",
          "name": "from",
          "type": "address"
        },
        {
          "internalType": "address",
          "name": "to",
          "type": "address"
        },
        {
          "internalType": "uint256",
          "name": "tokenId",
          "type": "uint256"
        }
      ],
      "name": "transferFrom",
      "outputs": [],
      "stateMutability": "payable",
      "type": "function"
    },
    {
      "inputs": [
        {
          "internalType": "address",
          "name": "newOwner",
          "type": "address"
        }
      ],
      "name": "transferOwnership",
      "outputs": [],
      "stateMutability": "nonpayable",
      "type": "function"
    }
  ],
  "bytecode": "0x60a0604052611b396080908152503480156200001a57600080fd5b506040518060400160405280600c81526020017f52697a7a656420426561727300000000000000000000000000000000000000008152506040518060400160405280600281526020017f5242000000000000000000000000000000000000000000000000000000000000815250816002908162000098919062000457565b508060039081620000aa919062000457565b50620000bb6200010a60201b60201c565b6000819055505050620000e3620000d76200010f60201b60201c565b6200011760201b60201c565b604051806020016040528060008152506009908162000103919062000457565b506200053e565b600090565b600033905090565b6000600860009054906101000a900473ffffffffffffffffffffffffffffffffffffffff16905081600860006101000a81548173ffffffffffffffffffffffffffffffffffffffff021916908373ffffffffffffffffffffffffffffffffffffffff1602179055508173ffffffffffffffffffffffffffffffffffffffff168173ffffffffffffffffffffffffffffffffffffffff167f8be0079c531659141344cd1fd0a4f28419497f9722a3daafe3b4186f6b6457e060405160405180910390a35050565b600081519050919050565b7f4e487b7100000000000000000000000000000000000000000000000000000000600052604160045260246000fd5b7f4e487b7100000000000000000000000000000000000000000000000000000000600052602260045260246000fd5b600060028204905060018216806200025f57607f821691505b60208210810362000275576200027462000217565b5b50919050565b60008190508160005260206000209050919050565b60006020601f8301049050919050565b600082821b905092915050565b600060088302620002df7fffffffffffffffffffffffffffffffffffffffffffffffffffffffffffffffff82620002a0565b620002eb8683620002a0565b95508019841693508086168417925050509392505050565b6000819050919050565b6000819050919050565b600062000338620003326200032c8462000303565b6200030d565b62000303565b9050919050565b6000819050919050565b620003548362000317565b6200036c62000363826200033f565b848454620002ad565b825550505050565b600090565b6200038362000374565b6200039081848462000349565b505050565b5b81811015620003b857620003ac60008262000379565b60018101905062000396565b5050565b601f8211156200040757620003d1816200027b565b620003dc8462000290565b81016020851015620003ec578190505b62000404620003fb8562000290565b83018262000395565b50505b505050565b600082821c905092915050565b60006200042c600019846008026200040c565b1980831691505092915050565b600062000447838362000419565b9150826002028217905092915050565b6200046282620001dd565b67ffffffffffffffff8111156200047e576200047d620001e8565b5b6200048a825462000246565b62000497828285620003bc565b600060209050601f831160018114620004cf5760008415620004ba578287015190505b620004c6858262000439565b86555062000536565b601f198416620004df866200027b565b60005b828110156200050957848901518255600182019150602085019450602081019050620004e2565b8683101562000529578489015162000525601f89168262000419565b8355505b6001600288020188555050505b505050505050565b60805161213a6200056160003960008181610aab0152610f1e015261213a6000f3fe60806040526004361061011f5760003560e01c806370a08231116100a0578063b88d4fde11610064578063b88d4fde1461039f578063c87b56dd146103bb578063d5abeb01146103f8578063e985e9c514610423578063f2fde38b146104605761011f565b806370a08231146102cc578063715018a6146103095780638da5cb5b1461032057806395d89b411461034b578063a22cb465146103765761011f565b806323b872dd116100e757806323b872dd14610210578063379607f51461022c57806342842e0e146102485780636352211e146102645780636c0360eb146102a15761011f565b806301ffc9a71461012457806306fdde0314610161578063081812fc1461018c578063095ea7b3146101c957806318160ddd146101e5575b600080fd5b34801561013057600080fd5b5061014b60048036038101906101469190611798565b610489565b60405161015891906117e0565b60405180910390f35b34801561016d57600080fd5b5061017661051b565b6040516101839190611894565b60405180910390f35b34801561019857600080fd5b506101b360048036038101906101ae91906118ec565b6105ad565b6040516101c0919061195a565b60405180910390f35b6101e360048036038101906101de91906119a1565b61062c565b005b3480156101f157600080fd5b506101fa610770565b60405161020791906119f0565b60405180910390f35b61022a60048036038101906102259190611a0b565b610787565b005b610246600480360381019061024191906118ec565b610aa9565b005b610262600480360381019061025d9190611a0b565b610b22565b005b34801561027057600080fd5b5061028b600480360381019061028691906118ec565b610b42565b604051610298919061195a565b60405180910390f35b3480156102ad57600080fd5b506102b6610b54565b6040516102c39190611894565b60405180910390f35b3480156102d857600080fd5b506102f360048036038101906102ee9190611a5e565b610be2565b60405161030091906119f0565b60405180910390f35b34801561031557600080fd5b5061031e610c9a565b005b34801561032c57600080fd5b50610335610cae565b604051610342919061195a565b60405180910390f35b34801561035757600080fd5b50610360610cd8565b60405161036d9190611894565b60405180910390f35b34801561038257600080fd5b5061039d60048036038101906103989190611ab7565b610d6a565b005b6103b960048036038101906103b49190611c2c565b610e75565b005b3480156103c757600080fd5b506103e260048036038101906103dd91906118ec565b610ee8565b6040516103ef9190611894565b60405180910390f35b34801561040457600080fd5b5061040d610f1c565b60405161041a91906119f0565b60405180910390f35b34801561042f57600080fd5b5061044a60048036038101906104459190611caf565b610f40565b60405161045791906117e0565b60405180910390f35b34801561046c57600080fd5b5061048760048036038101906104829190611a5e565b610fd4565b005b60006301ffc9a760e01b827bffffffffffffffffffffffffffffffffffffffffffffffffffffffff191614806104e457506380ac58cd60e01b827bffffffffffffffffffffffffffffffffffffffffffffffffffffffff1916145b806105145750635b5e139f60e01b827bffffffffffffffffffffffffffffffffffffffffffffffffffffffff1916145b9050919050565b60606002805461052a90611d1e565b80601f016020809104026020016040519081016040528092919081815260200182805461055690611d1e565b80156105a35780601f10610578576101008083540402835291602001916105a3565b820191906000526020600020905b81548152906001019060200180831161058657829003601f168201915b5050505050905090565b60006105b882611057565b6105ee576040517fcf4700e400000000000000000000000000000000000000000000000000000000815260040160405180910390fd5b6006600083815260200190815260200160002060000160009054906101000a900473ffffffffffffffffffffffffffffffffffffffff169050919050565b600061063782610b42565b90508073ffffffffffffffffffffffffffffffffffffffff166106586110b6565b73ffffffffffffffffffffffffffffffffffffffff16146106bb576106848161067f6110b6565b610f40565b6106ba576040517fcfb3b94200000000000000000000000000000000000000000000000000000000815260040160405180910390fd5b5b826006600084815260200190815260200160002060000160006101000a81548173ffffffffffffffffffffffffffffffffffffffff021916908373ffffffffffffffffffffffffffffffffffffffff160217905550818373ffffffffffffffffffffffffffffffffffffffff168273ffffffffffffffffffffffffffffffffffffffff167f8c5be1e5ebec7d5bd14f71427d1e84f3dd0314c0f7b2291e5b200ac8c7c3b92560405160405180910390a4505050565b600061077a6110be565b6001546000540303905090565b6000610792826110c3565b90508373ffffffffffffffffffffffffffffffffffffffff168173ffffffffffffffffffffffffffffffffffffffff16146107f9576040517fa114810000000000000000000000000000000000000000000000000000000000815260040160405180910390fd5b6000806108058461118f565b9150915061081b81876108166110b6565b6111b6565b610867576108308661082b6110b6565b610f40565b610866576040517f59c896be00000000000000000000000000000000000000000000000000000000815260040160405180910390fd5b5b600073ffffffffffffffffffffffffffffffffffffffff168573ffffffffffffffffffffffffffffffffffffffff16036108cd576040517fea553b3400000000000000000000000000000000000000000000000000000000815260040160405180910390fd5b6108da86868660016111fa565b80156108e557600082555b600560008773ffffffffffffffffffffffffffffffffffffffff1673ffffffffffffffffffffffffffffffffffffffff168152602001908152602001600020600081546001900391905081905550600560008673ffffffffffffffffffffffffffffffffffffffff1673ffffffffffffffffffffffffffffffffffffffff16815260200190815260200160002060008154600101919050819055506109b38561098f888887611200565b7c020000000000000000000000000000000000000000000000000000000017611228565b600460008681526020019081526020016000208190555060007c0200000000000000000000000000000000000000000000000000000000841603610a395760006001850190506000600460008381526020019081526020016000205403610a37576000548114610a36578360046000838152602001908152602001600020819055505b5b505b838573ffffffffffffffffffffffffffffffffffffffff168773ffffffffffffffffffffffffffffffffffffffff167fddf252ad1be2c89b69c2b068fc378daa952ba7f163c4a11628f55a4df523b3ef60405160405180910390a4610aa18686866001611253565b505050505050565b7f000000000000000000000000000000000000000000000000000000000000000081610ad3611259565b610add9190611d7e565b1115610b15576040517f846fb9e200000000000000000000000000000000000000000000000000000000815260040160405180910390fd5b610b1f338261126c565b50565b610b3d83838360405180602001604052806000815250610e75565b505050565b6000610b4d826110c3565b9050919050565b60098054610b6190611d1e565b80601f0160208091040260200160405190810160405280929190818152602001828054610b8d90611d1e565b8015610bda5780601f10610baf57610100808354040283529160200191610bda565b820191906000526020600020905b815481529060010190602001808311610bbd57829003601f168201915b505050505081565b60008073ffffffffffffffffffffffffffffffffffffffff168273ffffffffffffffffffffffffffffffffffffffff1603610c49576040517f8f4eb60400000000000000000000000000000000000000000000000000000000815260040160405180910390fd5b67ffffffffffffffff600560008473ffffffffffffffffffffffffffffffffffffffff1673ffffffffffffffffffffffffffffffffffffffff16815260200190815260200160002054169050919050565b610ca2611427565b610cac60006114a5565b565b6000600860009054906101000a900473ffffffffffffffffffffffffffffffffffffffff16905090565b606060038054610ce790611d1e565b80601f0160208091040260200160405190810160405280929190818152602001828054610d1390611d1e565b8015610d605780601f10610d3557610100808354040283529160200191610d60565b820191906000526020600020905b815481529060010190602001808311610d4357829003601f168201915b5050505050905090565b8060076000610d776110b6565b73ffffffffffffffffffffffffffffffffffffffff1673ffffffffffffffffffffffffffffffffffffffff16815260200190815260200160002060008473ffffffffffffffffffffffffffffffffffffffff1673ffffffffffffffffffffffffffffffffffffffff16815260200190815260200160002060006101000a81548160ff0219169083151502179055508173ffffffffffffffffffffffffffffffffffffffff16610e246110b6565b73ffffffffffffffffffffffffffffffffffffffff167f17307eab39ab6107e8899845ad3d59bd9653f200f220920489ca2b5937696c3183604051610e6991906117e0565b60405180910390a35050565b610e80848484610787565b60008373ffffffffffffffffffffffffffffffffffffffff163b14610ee257610eab8484848461156b565b610ee1576040517fd1a57ed600000000000000000000000000000000000000000000000000000000815260040160405180910390fd5b5b50505050565b60606009610ef5836116bb565b604051602001610f06929190611ef4565b6040516020818303038152906040529050919050565b7f000000000000000000000000000000000000000000000000000000000000000081565b6000600760008473ffffffffffffffffffffffffffffffffffffffff1673ffffffffffffffffffffffffffffffffffffffff16815260200190815260200160002060008373ffffffffffffffffffffffffffffffffffffffff1673ffffffffffffffffffffffffffffffffffffffff16815260200190815260200160002060009054906101000a900460ff16905092915050565b610fdc611427565b600073ffffffffffffffffffffffffffffffffffffffff168173ffffffffffffffffffffffffffffffffffffffff160361104b576040517f08c379a000000000000000000000000000000000000000000000000000000000815260040161104290611f95565b60405180910390fd5b611054816114a5565b50565b6000816110626110be565b11158015611071575060005482105b80156110af575060007c0100000000000000000000000000000000000000000000000000000000600460008581526020019081526020016000205416145b9050919050565b600033905090565b600090565b600080829050806110d26110be565b11611158576000548110156111575760006004600083815260200190815260200160002054905060007c0100000000000000000000000000000000000000000000000000000000821603611155575b6000810361114b576004600083600190039350838152602001908152602001600020549050611121565b809250505061118a565b505b5b6040517fdf2d9b4200000000000000000000000000000000000000000000000000000000815260040160405180910390fd5b919050565b60008060006006600085815260200190815260200160002090508092508254915050915091565b600073ffffffffffffffffffffffffffffffffffffffff8316925073ffffffffffffffffffffffffffffffffffffffff821691508382148383141790509392505050565b50505050565b60008060e883901c905060e861121786868461170b565b62ffffff16901b9150509392505050565b600073ffffffffffffffffffffffffffffffffffffffff83169250814260a01b178317905092915050565b50505050565b60006112636110be565b60005403905090565b600080549050600082036112ac576040517fb562e8dd00000000000000000000000000000000000000000000000000000000815260040160405180910390fd5b6112b960008483856111fa565b600160406001901b178202600560008573ffffffffffffffffffffffffffffffffffffffff1673ffffffffffffffffffffffffffffffffffffffff16815260200190815260200160002060008282540192505081905550611330836113216000866000611200565b61132a85611714565b17611228565b6004600083815260200190815260200160002081905550600080838301905073ffffffffffffffffffffffffffffffffffffffff85169150828260007fddf252ad1be2c89b69c2b068fc378daa952ba7f163c4a11628f55a4df523b3ef600080a4600183015b8181146113d157808360007fddf252ad1be2c89b69c2b068fc378daa952ba7f163c4a11628f55a4df523b3ef600080a4600181019050611396565b506000820361140c576040517f2e07630000000000000000000000000000000000000000000000000000000000815260040160405180910390fd5b8060008190555050506114226000848385611253565b505050565b61142f611724565b73ffffffffffffffffffffffffffffffffffffffff1661144d610cae565b73ffffffffffffffffffffffffffffffffffffffff16146114a3576040517f08c379a000000000000000000000000000000000000000000000000000000000815260040161149a90612001565b60405180910390fd5b565b6000600860009054906101000a900473ffffffffffffffffffffffffffffffffffffffff16905081600860006101000a81548173ffffffffffffffffffffffffffffffffffffffff021916908373ffffffffffffffffffffffffffffffffffffffff1602179055508173ffffffffffffffffffffffffffffffffffffffff168173ffffffffffffffffffffffffffffffffffffffff167f8be0079c531659141344cd1fd0a4f28419497f9722a3daafe3b4186f6b6457e060405160405180910390a35050565b60008373ffffffffffffffffffffffffffffffffffffffff1663150b7a026115916110b6565b8786866040518563ffffffff1660e01b81526004016115b39493929190612076565b6020604051808303816000875af19250505080156115ef57506040513d601f19601f820116820180604052508101906115ec91906120d7565b60015b611668573d806000811461161f576040519150601f19603f3d011682016040523d82523d6000602084013e611624565b606091505b506000815103611660576040517fd1a57ed600000000000000000000000000000000000000000000000000000000815260040160405180910390fd5b805181602001fd5b63150b7a0260e01b7bffffffffffffffffffffffffffffffffffffffffffffffffffffffff1916817bffffffffffffffffffffffffffffffffffffffffffffffffffffffff191614915050949350505050565b606060a060405101806040526020810391506000825281835b6001156116f657600184039350600a81066030018453600a81049050806116d4575b50828103602084039350808452505050919050565b60009392505050565b60006001821460e11b9050919050565b600033905090565b6000604051905090565b600080fd5b600080fd5b60007fffffffff0000000000000000000000000000000000000000000000000000000082169050919050565b61177581611740565b811461178057600080fd5b50565b6000813590506117928161176c565b92915050565b6000602082840312156117ae576117ad611736565b5b60006117bc84828501611783565b91505092915050565b60008115159050919050565b6117da816117c5565b82525050565b60006020820190506117f560008301846117d1565b92915050565b600081519050919050565b600082825260208201905092915050565b60005b8381101561183557808201518184015260208101905061181a565b83811115611844576000848401525b50505050565b6000601f19601f8301169050919050565b6000611866826117fb565b6118708185611806565b9350611880818560208601611817565b6118898161184a565b840191505092915050565b600060208201905081810360008301526118ae818461185b565b905092915050565b6000819050919050565b6118c9816118b6565b81146118d457600080fd5b50565b6000813590506118e6816118c0565b92915050565b60006020828403121561190257611901611736565b5b6000611910848285016118d7565b91505092915050565b600073ffffffffffffffffffffffffffffffffffffffff82169050919050565b600061194482611919565b9050919050565b61195481611939565b82525050565b600060208201905061196f600083018461194b565b92915050565b61197e81611939565b811461198957600080fd5b50565b60008135905061199b81611975565b92915050565b600080604083850312156119b8576119b7611736565b5b60006119c68582860161198c565b92505060206119d7858286016118d7565b9150509250929050565b6119ea816118b6565b82525050565b6000602082019050611a0560008301846119e1565b92915050565b600080600060608486031215611a2457611a23611736565b5b6000611a328682870161198c565b9350506020611a438682870161198c565b9250506040611a54868287016118d7565b9150509250925092565b600060208284031215611a7457611a73611736565b5b6000611a828482850161198c565b91505092915050565b611a94816117c5565b8114611a9f57600080fd5b50565b600081359050611ab181611a8b565b92915050565b60008060408385031215611ace57611acd611736565b5b6000611adc8582860161198c565b9250506020611aed85828601611aa2565b9150509250929050565b600080fd5b600080fd5b7f4e487b7100000000000000000000000000000000000000000000000000000000600052604160045260246000fd5b611b398261184a565b810181811067ffffffffffffffff82111715611b5857611b57611b01565b5b80604052505050565b6000611b6b61172c565b9050611b778282611b30565b919050565b600067ffffffffffffffff821115611b9757611b96611b01565b5b611ba08261184a565b9050602081019050919050565b82818337600083830152505050565b6000611bcf611bca84611b7c565b611b61565b905082815260208101848484011115611beb57611bea611afc565b5b611bf6848285611bad565b509392505050565b600082601f830112611c1357611c12611af7565b5b8135611c23848260208601611bbc565b91505092915050565b60008060008060808587031215611c4657611c45611736565b5b6000611c548782880161198c565b9450506020611c658782880161198c565b9350506040611c76878288016118d7565b925050606085013567ffffffffffffffff811115611c9757611c9661173b565b5b611ca387828801611bfe565b91505092959194509250565b60008060408385031215611cc657611cc5611736565b5b6000611cd48582860161198c565b9250506020611ce58582860161198c565b9150509250929050565b7f4e487b7100000000000000000000000000000000000000000000000000000000600052602260045260246000fd5b60006002820490506001821680611d3657607f821691505b602082108103611d4957611d48611cef565b5b50919050565b7f4e487b7100000000000000000000000000000000000000000000000000000000600052601160045260246000fd5b6000611d89826118b6565b9150611d94836118b6565b9250827fffffffffffffffffffffffffffffffffffffffffffffffffffffffffffffffff03821115611dc957611dc8611d4f565b5b828201905092915050565b600081905092915050565b60008190508160005260206000209050919050565b60008154611e0181611d1e565b611e0b8186611dd4565b94506001821660008114611e265760018114611e3b57611e6e565b60ff1983168652811515820286019350611e6e565b611e4485611ddf565b60005b83811015611e6657815481890152600182019150602081019050611e47565b838801955050505b50505092915050565b6000611e82826117fb565b611e8c8185611dd4565b9350611e9c818560208601611817565b80840191505092915050565b7f2e6a736f6e000000000000000000000000000000000000000000000000000000600082015250565b6000611ede600583611dd4565b9150611ee982611ea8565b600582019050919050565b6000611f008285611df4565b9150611f0c8284611e77565b9150611f1782611ed1565b91508190509392505050565b7f4f776e61626c653a206e6577206f776e657220697320746865207a65726f206160008201527f6464726573730000000000000000000000000000000000000000000000000000602082015250565b6000611f7f602683611806565b9150611f8a82611f23565b604082019050919050565b60006020820190508181036000830152611fae81611f72565b9050919050565b7f4f776e61626c653a2063616c6c6572206973206e6f7420746865206f776e6572600082015250565b6000611feb602083611806565b9150611ff682611fb5565b602082019050919050565b6000602082019050818103600083015261201a81611fde565b9050919050565b600081519050919050565b600082825260208201905092915050565b600061204882612021565b612052818561202c565b9350612062818560208601611817565b61206b8161184a565b840191505092915050565b600060808201905061208b600083018761194b565b612098602083018661194b565b6120a560408301856119e1565b81810360608301526120b7818461203d565b905095945050505050565b6000815190506120d18161176c565b92915050565b6000602082840312156120ed576120ec611736565b5b60006120fb848285016120c2565b9150509291505056fea26469706673582212203fcd2ab46b78d5df53cb2c63e60d636cccbd3748a1e89ae66699cf8fa113b5b364736f6c634300080f0033",
  "linkReferences": {},
  "deployedLinkReferences": {}
}